:020000040000FA
:020000000628D0
:040002000034003492
:02000800782856
:04000C002420292063
:10001000542066206E200313831285124420A10110
:1000200021191528A11818281B2821183529252938
:100030002118152905292118F528E328A620851659
:10004000A1208512B52010280313831677308F0066
:100050000800031383128501031383160130850002
:100060000317831601308800031783168901C130F6
:10007000860003138312860103138312870103137F
:1000800083160230870008000313831270308B0040
:100090008C018D010313831601170C178C140C149B
:1000A0000D148D018B1708000313831281309F00FC
:1000B0000313831600309F006120031383129F14E3
:1000C00008000430A000A00B63280800031383126B
:1000D0007B30920091013C30A3000800031383128F
:1000E000003090008E018F0105309D009B010800BB
:1000F000A500030EA400031383120C188D21031313
:1001000083120D184C218B1C8728C4208B100313DD
:1001100083120C1F8F2899200C1361209F14031346
:1001200083128C18D8208C10240E8300A50E250E67
:1001300009003F301E02031C9F28271008002714C7
:1001400008000A30A800A80BA3280800C830A8009F
:10015000A80BAB280800C830A900A90BB028A82814
:100160000A30AA00AA0BB228AD28C830A800A80BF4
:10017000BA2808006430A900A90BBF28B7280230AC
:10018000AA00AA0BC128BC282119D4282118D128DB
:10019000A118D1281219CF2891011215A201A20A83
:1001A00008000530A1000800211CD128A101080089
:1001B000A30B08000313831212113C30A300220882
:1001C000A1008C100800031383128510051105127D
:1001D0008511271CF02807178615871606161E2876
:1001E00007138611871206121E28031383120515A2
:1001F0000516271C002907178615871206121E28C8
:1002000007138611871206121E2803138312851402
:100210008515271C102987160616071386111E2818
:1002200087120612071386111E2803138312051660
:100230008514271C202907178716061286111E28E9
:1002400007138712061286111E2803138312051541
:100250008515271C302986150616871207131E28B8
:1002600007138712061286111E2815308B050313FB
:1002700083120508A6000512851105118510851247
:1002800007138712061286116300F0308B040313E4
:10029000831261209F141E28031383121D1C5629EC
:1002A0001D108E018F0110140D100800031383120E
:1002B000101C8A2910101D140F301C02031C662903
:1002C0000D100D1010108F018E0108000313831202
:1002D0008510051105128511A620031383128514BC
:1002E0008515A620A620031383128510051105127B
:1002F0008511A6200313831205158515A620031367
:10030000831285100511051285110D1010108F0133
:100310008E0108000D101D14080003138312101025
:060320000C1000000800B3
:02400E00F50FAC
:02401000FF3E71
:00000001FF
